:10F0000067C1B00710AD5012ACC1BAC1F9C1D7C1C8
:10F01000C7C112C273C265C208950895BCC26FC34E
:10F0200072C3089572C3D1C3DCC3E6C3EEC30895AF
:10F030006FC1FFCF6AC030E03A95F1F737EB3A95F0
:10F04000F1F7A0E0B1E0C8EBD7E0A090E31068E0F2
:10F0500070E0E9912E2FEF70FF27E855F84F0081FF
:10F06000102FE22FE295EF70FF27E856F84F20812E
:10F0700040E954E01124470F511D37E22224332484
:10F0800021013101EAD0E2E3EA95F1F700C028B8A6
:10F090000D90069E040E38B8151EF00100803A95BA
:10F0A00048B800C0180107FC222E58B806FC322EC2
:10F0B000280105FC422E68B804FC522E480103FCCE
:10F0C000822E78B802FC922E340109F7222428B847
:10F0D000979737E13A95F1F7AA9439F0739578301C
:10F0E00019F477279696B5CFFECF3BE03A95F1F726
:10F0F00000C0B3D0E091E11042E0E160E427E0938A
:10F10000E110E2E0E093360008950000EABDE091EE
:10F110008400E2FD04C0E1FD02C0000000C0E0FF89
:10F1200000C0EFB7EBBDFF9328980F921F92FCD061
:10F13000E091E010EA95E093E010C9F0F091E21060
:10F14000EF1B11F0C8F555C0F4E2FA95F1F700C0D5
:10F15000E2E0FF2701900F92EE31E1F70E941B7869
:10F16000EEE1FF27EA950F900082E1F744C0E0E06E
:10F17000EA95F1F7E9E2EA95F1F700C0E0E0EA95F7
:10F18000F1F742D041D040D052D051D050D03CD0F5
:10F190003BD03AD0E491F19AF09832D0ECEF0E2EB9
:10F1A000E0EEF0E100821480011802820580038203
:10F1B000E2E0E09336001DC0E13120F0129A09F43C
:10F1C000129817C0139800907A0810907B08009945
:10F1D00088941794079400927A0810927B08E13083
:10F1E00021F40092780810927908E491E491E49176
:10F1F000139A1F900F90FF91EBB5EFBFEAB51895EA
:10F200002898E49100C090C0F198F09AF9DFE0E00E
:10F21000EA95F1F72898E6E1EA95F1F7289AE0E017
:10F22000EA95F1F7E3E1EA95F1F700000895F19826
:10F23000F098E6DFE3EDEA95F1F7289AECE2EA953B
:10F24000F1F700C02898E0E0EA95F1F700C000C0AF
:10F25000289AE8E2EA95F1F70895289800C000C0DE
:10F2600063D0E091E010EA95E093E01008955A55DC
:10F27000012001010038080000000000000000002B
:10F28000000000000000000000000000000054002A
:10F290003E006018600061806100550155025DDF2D
:10F2A0005E1081004500648127FF2AD22B7D210C4E
:10F2B00022FB850084008907881B81096F02444274
:10F2C00047004501B083B300B10124B92557FFFFC2
:10F2D00011241FBEA895EEE8F2EFB0E0D0E0A591B2
:10F2E0002590C5913590AF3F19F02C923882F7CF19
:10F2F000E0EEF0E1A6E0A1931192AA95E9F77894E7
:10F3000080E091E060E07FE0F3D417D5EAD4C5C394
:10F3100011241FBE6894DC015796E0E0F1E19E9154
:10F3200092938A13FCCFD6CFF091E610F15008F4F7
:10F33000F0E0F799FFEFF798F093E610FF0FFF0F5B
:10F34000F0540AF4F095F05CF093B300EDE0EA9528
:10F35000F1F7F099289AE6E1EA95F1F7F199289A00
:10F360000895880F862769E887FD862705D004D091
:10F3700003D002D001D000D0880F87FD86270895E2
:10F38000962761E270E106D005D004D003D002D008
:10F3900001D000D0880F991F10F486279727089571
:10F3A0005E9A08940DB400080EBC0DB407FC0895D5
:10F3B000FCCF70E060E0AB010895D3DFF6CF5E983C
:10F3C0008F738064EEDF8EBD6F93682F80E0F5DF72
:10F3D0007EBD672FF2DF6F916EBDEFDF5EBD652FE3
:10F3E000ECDF4EBD642FE9DF880F81608EBDDDDF6D
:10F3F00090E1D7DF8EB58F3F11F49A95D1F708953C
:10F4000080E090E1CEDF0EB4039411F40197D1F7C0
:10F410000A94802D0895C4DF80E090E0089581E093
:10F42000FCCFBEDF82E0F9CFBBDF83E0F6CFB8DFF1
:10F4300084E0F3CF85E0F1CFDC0190E09C932E9A3D
:10F44000279A259A2F982D985E9A569A93E59CBDF7
:10F4500090E09DBDE3E07AE0A4DF7A95E9F780E0F3
:10F46000A8DF33D0813019F0EA95A9F7D8CF8BE324
:10F47000A0DF41E02AD0813009F0D4CF88E099DFC5
:10F4800051E04AEA24D0F0E0813009F4F0E4E0E011
:10F4900087E38FDF1AD089E28CDF7F2F18D081308D
:10F4A00011F020F0C2CFEA9599F7C2CF8AE381DF4D
:10F4B0000ED0803009F0BECF91E59CBD91E09DBD9E
:10F4C00091E076FD92609C93A7CF79DF69CF77DFDB
:10F4D00068DF7EB566DF6EB564DF5EB562DF4EB5B0
:10F4E0005FCF9A01DB018F939F9308D09F910F907C
:10F4F000BD01A901803009F40895802DFC0190819F
:10F5000029D091FD07C0762F652F542F40E0550F6D
:10F51000661F771F81E153DF803009F082CF70DFF3
:10F520008E3F09F081CF80E090E03BDFAF015E5F6E
:10F530006EB500080EBC619323DF37DFE417F507D3
:10F54000B8F35EB52EDF4EB5841B950B09F06FCF77
:10F5500062CFF5010180F281E02D0895082E8150DF
:10F56000802109F008940895F4DF4385403089F440
:10F570004089423071F45485458566857785852FAD
:10F58000EDDF38F0842FEADF20F0703059F760307B
:10F5900049F788940895AF92BF925C014DDF8030A7
:10F5A00081F04ADF803069F003C08827DF91CF9176
:10F5B000BF90AF9011249927089586E0F9CF87E096
:10F5C000F7CFC50140E050E0BA018BDFA0E0B0E02A
:10F5D000803099F7C9DF80F0C501E254FE4F4085C5
:10F5E000518560E070E04F935F937BDFBF91AF91F7
:10F5F000803019F7B9DF18F7CF93DF93E501459F06
:10F60000169407940B82659FC001759F900D969587
:10F610008795A80FB91FAC83BD83268937896627D4
:10F62000772748814B7F203039F4303029F444600B
:10F6300024A135A166A177A14883259FC001359FEC
:10F64000900D20E0211D659F200D30E0311D759F3C
:10F65000300D11248A0F9B1F211D311D42FF0DC04B
:10F660008E839F832887398764A575A586A597A56E
:10F670006A877B878C879D8798CF8A879B872C8713
:10F680003D8741895289415F5F4F56954795569511
:10F6900047955695479556954795840F951F211D7B
:10F6A000311D8E839F83288739877FCFFC01428954
:10F6B000538964897589008003FC1FC04250504003
:10F6C00060407040B3814B9F900180E090E05B9F71
:10F6D000300D811D6B9F800D911D7B9F900D11241E
:10F6E0004681420F5781531F6085681F7185791FBE
:10F6F0000688400D511D611D711DCF010895D6DF93
:10F70000CB01BA010895D2DFECCEFC016289738986
:10F7100084899589008003FC45C0468943955381BF
:10F7200045133EC04DD002FC4BD06F937F93472FC3
:10F73000582F692F7727669557954795848195812E
:10F740001124480F591F611D711DCF01EF93FF93C5
:10F75000C8DEFF91EF915F914F918030F9F4008006
:10F76000A181B2815170A40FB51F6D917D91882741
:10F7700099274FEF02FE06C08D919D915FE084179F
:10F78000950718F0603F740748F440E0468B628BA1
:10F79000738B848B958B80E090E0089581E0FCCFA3
:10F7A000468BF9CF6F5F7F4F8F4F9F4F26813781F9
:10F7B00040855185621773078407950778F7E7CF6F
:10F7C000660F771F881F991F0895FC010684028A1F
:10F7D0000784038A0088048A0188058A0024068A2F
:10F7E0000895FC01708172FF7860708342855385B3
:10F7F00064857585468705C0FC0146874081477F43
:10F8000040835787608B718BE0CFDC01FB01628DF9
:10F81000738D848995890C9002FE80E002FE90E051
:10F8200008956F928F92AF92BF920F931F93CF93D1
:10F83000DF935C01EB018824642ED3DF0FEF1FEF11
:10F84000E8940F5F1F4FD801AF7051F426F4C50143
:10F850005CDF803061F5C50156DF803041F568948A
:10F86000D5011196ED91FD91A02FAF70B0E2AB9F45
:10F87000E00DF11D1124D501CADF61157105810567
:10F880009105F9F240814032E0F2453ED1F24F3528
:10F89000C1F24085455541854A454285454489F632
:10F8A00069937993899399938394861451F6882D5B
:10F8B000DF91CF911F910F91BF90AF908F906F907C
:10F8C00008955C01962E87E761E10DD280E061E149
:10F8D00059D087E04ED069D0C8E2D1E06EE169939B
:10F8E00069936CE16E8F6F8F892DF0D1C5010BDFAD
:10F8F000811136C0F50141815281FA01408551855F
:10F900006285738530EF413053076105710540F51D
:10F9100041505E4F569521F1C52E00E0C501F5DE40
:10F9200081111EC0C501EFDE81111AC0C501602F13
:10F930002FD38130A8F06FE519F07881671360E666
:10F94000699300FD01FF219703950C11E7CF8DE22C
:10F95000BDD1F89481E090E085BF95BF0C94000084
:10F9600024D081E391E060E055D084EBAFD1B9D1F0
:10F97000C1C00ED081E18193808788E881938F5E3A
:10F98000E8F3089540E004D041936A95E9F70895BB
:10F990001124E8EBF7E0E80FF11D0895DC01FB010D
:10F9A00005900D924A95E1F7089580E091E060E9B5
:10F9B00073E09EC188E997E060EC79EF40E2EECF1A
:10F9C000FFFF000000000000ADB6B7FFFFB7B6AD07
:10F9D0000066000000000000010A0B13130B0A016F
:10F9E00089EE90E10895FCDF6CE77AE01ACFF8DF4A
:10F9F000D2CD54E0459FF0011124E458F54F4191D8
:10FA0000519161917191ECDFF7CEEADF7CCE61E03C
:10FA1000E7DF57CF1124EAE2FAEF660FE60FF11D98
:10FA2000659175914591461BB9CF3AFA49FA57FA53
:10FA300064FA84FA8BFA92FA9AFA2C4F4144494EAE
:10FA400047004641494C454401294E534552540014
:10FA500033240023415244254D505459003324008F
:10FA600023415244355A45224F580027414D450005
:10FA70002C4F41444552000000000000360E150E88
:10FA8000100E1112221A002D454E55221A00274140
:10FA90004D45394541521A00121071D18BDFEAEE03
:10FAA000F0E18CE798E08193919386E13CD1982E28
:10FAB000A6F00CE210E081E009D123D10150182B0F
:10FAC000192BC8F7B1F493DF81110AC042E08BDF34
:10FAD000813031F440E08DDF9ACF89DF6FEF98CF2E
:10FAE000E0E0F0E08491803021F08F3F11F0911040
:10FAF00030CF00C000E089E116D1D82E8FEFB82EAC
:10FB0000A82E882483E060E14AE03DDF8DE960E2D1
:10FB10003ADF83E161E041E036DF8CE961E033DF29
:10FB200089E291E063E076DFA7D000FD07C05FDFE8
:10FB3000803041F44FEF57DFF82E05608A948A94A5
:10FB400009F495D082E0C2D000FF77C0F11002C066
:10FB500062E074C0DF1410F0DF2CDA94C601807FFD
:10FB6000907F891709F0046002FF05C0EE248FEF33
:10FB7000C82E75D00B7F8E2D803190F44D2D407F97
:10FB80004E294F1568F435DF72D08E2D96E2899F8D
:10FB9000D0011124AB58BE4FEAE8F8E083D0E394DB
:10FBA00063D08D2D8F70880F880F880F895EE1DEFE
:10FBB000CD1069D0A6E5B4E04D2D42954F707CD0B4
:10FBC0004FE04D934F2D4A9542954F7075D0CD2CF7
:10FBD00098D0BC016A257B25682379235C016115D7
:10FBE000710509F0F79A4FEF50E1CB01807219F0DF
:10FBF000D39409F4D42ECB01807111F0D110DA9492
:10FC0000CB01807809F0D50E08F4D42ECB01807496
:10FC100019F0D51A08F4DD24CB01847009F016C060
:10FC2000CB01887009F012C0CB01817029F081E00E
:10FC3000911080E0982E20D078CF61E06F930FD0A4
:10FC400013D06F918EEA92E0E5DE6FCF89E16D2DE2
:10FC50005DD086E1692D5AD04D2DCBDED8DE82E70E
:10FC600091E060E672E044C087E162E88BCECDDED1
:10FC7000803009F000E0089560E0911061E080E6D6
:10FC800094E06C5FC7CE4D2DB4DEF1DF87E494E0E5
:10FC900066E0C0DEE8E8F8E04081405D0DD0ABEF03
:10FCA000B3E0B29640E251915052503608F050E025
:10FCB0005D934A95C1F708955FEF53954A50E8F771
:10FCC00002D0465F542F505F5D9308959091E110EC
:10FCD000792F7170D9F39E7F9093E1108A95B1F7D7
:10FCE000089584E260EC8093E4106093E510089539
:10FCF000680F791FDC0111241D92A617B707E1F7E1
:10FD000008958091780890917908089590E0AC0169
:10FD10000BD0861739F052BD41BD60BDF894FA9AF8
:10FD2000F99A7894089590E0F999FECF92BD81BD3B
:10FD3000F894F89A80B578940895CF93DF9380E093
:10FD4000F2DF8A3521F481E0EEDF8535A9F0C0E0ED
:10FD5000D0E0FE01E259FD40CE016491D8DFC395A9
:10FD6000C032B9F7CE016FEFD2DF2196CE016FEF2F
:10FD7000CEDF6F96D830B1F7DF91CF910895EAEAE0
:10FD8000FDEFA0E9B4E081E675E068E095910C90A4
:10FD9000969507940D926A95D1F718977A95A9F7D9
:08FDA00018968A9589F7089571
:10FDAA00000000000000005F0000000700070024B8
:10FDBA007F247F2432497F492600630E3863502608
:10FDCA00594E30000003060041633E000000003E29
:10FDDA006341361C3E1C3608083E0808000060C015
:10FDEA00000808080808000060000000030E3860D8
:10FDFA003E6349633E407F464C08464F597162361E
:10FE0A006B414122107913161C316949492F324935
:10FE1A00496B3E03070D197136494949363E6B490C
:10FE2A0049260000240000000064C0004163361C1B
:10FE3A00081414141414081C366341060F590102DD
:10FE4A000E555D413E7C1613167C364949497F2280
:10FE5A004141633E3E6341417F414949497F01092E
:10FE6A0009097F7A4949633E7F0808087F00417F74
:10FE7A0041003F614141214163361C7F404040407F
:10FE8A007F7F060C067F7F180C067F3E6341633E28
:10FE9A00060909097F7E7341633E466939197F3233
:10FEAA0059494D2601017F01013F6040603F1F30E3
:10FEBA0060301F3F6030603F63361C366303067C48
:10FECA00060343474D597141417F00000060380ED7
:10FEDA000300007F414100060306004040404040C5
:10FEEA0000060300007854545420386C44447F2898
:10FEFA0044446C387F44446C3818545454380201D2
:10FF0A00097E0878A4A4A418780C04047F00447D10
:10FF1A004400007D848400446C38107F00407F4197
:10FF2A000078047C047C780C04047C386C446C38BB
:10FF3A0018242424FCFC242424180804047C00200B
:10FF4A00545454082040483F087C6040603C1C30B0
:10FF5A0060301C3C6030603C446C386C447CA0A02F
:10FF6A00B01C4C5C74644C41413E080000007F00A8
:10FF7A000000083E4141060C060306FFFFFFFFFF93
:06FF8A00FFC3C3C3FF002A
:10FF9000660FFC0181819281AC0107D0782FCA01E4
:10FFA0006395939502D087230895DC01F62F15D031
:10FFB00082608330E1F0F999FECF83E019D081E1CE
:10FFC00017D00D901D9081E013D0EE5FD1F7112472
:10FFD000BA9585E00DD081E10BD0E0E081E005909D
:10FFE0009D91091280E0E030D1F7FA95BA95089515
:10FFF000F89487BFE895789407B600FCFDCF089584
:040000030000F00009
:00000001FF
